:100000000C9439010C944D010C944D010C944D014C
:100010000C944D010C944D010C944D010C944D0128
:100020000C944D010C944D010C944D010C944D0118
:100030000C944D010C944D010C944D010C944D0108
:100040000C944D010C944D010C944D010C944D01F8
:100050000C944D010C944D010C944D010C943803FB
:100060000C944D010C944D010C944D010C944D01D8
:100070000C944D010C944D010C944D010C944D01C8
:100080000C944D010C944D010C944D010C944D01B8
:100090000C944D010C944D010C944D010C944D01A8
:1000A0000C944D010C944D010C944D010C944D0198
:1000B0000C944D010C944D010C944D010C944D0188
:1000C0000C944D010C944D010C944D010C944D0178
:1000D0000C944D010C944D010C944D010C944D0168
:1000E0000C944D010C94B9010C9427030C947F02DD
:1000F0000C9498020C94DA020C941B030C94DC010F
:100100000C94BD010C94B0020C94C2020C948C02AD
:100110000C940F030C94C4010C94F4010C94CA01C8
:100120000C94A3010C94B9020C9403030C94CE021A
:100130000C9433030C94EA010C94F0010C949E018E
:100140000C94E6020C94C1010C9486020C94E2011A
:100150000C94CE010C94F7020C94D4010C94D801A9
:100160000C94B5010C94A4020C94E60100000A0B57
:1001700002090C0D0E080703040100000000000036
:10018000000000000000000000000000000000006F
:10019000000000000000000012111000000000002C
:1001A000000000000000000000000000000000004F
:1001B000000000002200250028002B002E00310046
:1001C000340002010000050108010B0100002100BC
:1001D000240027002A002D00300033000101000018
:1001E000040107010A0105050505070508080808B7
:1001F000020202020A0A08080404040401010101BF
:1002000001010101030303030303030304070707B9
:100210000C0C0C0C0C0C0C0C02020202060606065E
:10022000060606060B0B0B0B0B0B0B0B010210202B
:10023000200808102040102040800201020108041C
:1002400002010102040810204080804020100804B0
:100250000201800402018040201008040201080409
:10026000020101020408102040800102040810204D
:10027000408011241FBECFEFD1E2DEBFCDBF00E032
:100280000CBF22E0A0E0B2E001C01D92A930B2078D
:10029000E1F70E9482030C9444040C94000090E067
:1002A000FC01E45DFD4F24918A519E4FFC01849135
:1002B000882399F090E0880F991FFC01E453FE4FCA
:1002C000A591B491FC01EE54FE4F859194918FB7A6
:1002D000F894EC91E22BEC938FBF0895282F30E037
:1002E000F901E459FE4F9491F901E45DFD4F449109
:1002F0002A513E4FF9012491222309F435C0992354
:1003000011F191509231F8F4E92FF0E08827E45789
:10031000FE4F8F4F0C943C04BD01C1019E01B501FD
:10032000B901A301C401CA01CE01D401D801DC0185
:10033000E201E601A301EA01F001F40180918000ED
:100340008F7780938000E22FF0E0EE0FFF1FEE54D6
:10035000FE4FA591B4918FB7F894EC91611148C00C
:1003600040954E234C938FBF0895809180008F7DE0
:10037000E8CF80918000877FE4CF84B58F7784BDFC
:10038000E2CF84B58F7DFBCF8091B0008F778093D3
:10039000B000D9CF8091B0008F7DF9CF80919000CF
:1003A0008F7780939000CFCF809190008F7DF9CF91
:1003B00080919000877FF5CF8091A0008F77809308
:1003C000A000C1CF8091A0008F7DF9CF8091A000C7
:1003D000877FF5CF809120018F7780932001B3CF65
:1003E000809120018F7DF9CF80912001877FF5CF0B
:1003F0004E2BB8CF3FB7F89480910502909106023A
:10040000A0910702B091080226B5A89B05C02F3F16
:1004100019F00196A11DB11D3FBFBA2FA92F982F2A
:100420008827BC01CD01620F711D811D911D42E025
:10043000660F771F881F991F4A95D1F708958F92ED
:100440009F92AF92BF92CF92DF92EF92FF924B01B9
:100450005C010E94FA016B017C010E94FA016C1997
:100460007D098E099F09683E734081059105A8F3B7
:1004700021E0821A9108A108B10888EEC80E83E035
:10048000D81EE11CF11C81149104A104B10429F7C8
:10049000FF90EF90DF90CF90BF90AF909F908F90A4
:1004A000089561E087E10E946E0160E086E10C94AE
:1004B0006E01CF93C82F0E944F01EC2FF0E0E4595A
:1004C000FE4FE491E150E23108F0CDC0F0E0882722
:1004D000E359FD4F8F4F0C943C047F0286028C023F
:1004E0009802A4023303B002B902C202CE02DA02B9
:1004F000E602F702030333030F031B03270384B54C
:10050000806884BD88EC87BDCF91089584B58062F2
:1005100084BD88EC88BDF8CF80918000806880938E
:10052000800088EC90E09093890080938800ECCF65
:100530008091800080628093800088EC90E09093AE
:100540008B0080938A00E0CF809180008860809348
:10055000800088EC90E090938D0080938C00D4CF45
:100560008091B00080688093B00088EC8093B300E5
:10057000CBCF8091B00080628093B00088EC8093F4
:10058000B400C2CF8091900080688093900088EC86
:1005900090E09093990080939800B6CF809190005E
:1005A00080628093900088EC90E090939B00809311
:1005B0009A00AACF8091900088608093900088EC88
:1005C00090E090939D0080939C009ECF8091A0002E
:1005D00080688093A0008091A0008F7B8093A00012
:1005E00088EC90E09093A9008093A8008DCF809133
:1005F000A00080628093A00088EC90E09093AB0014
:100600008093AA0081CF8091A00088608093A00091
:1006100088EC90E09093AD008093AC0075CF809112
:10062000200180688093200188EC90E0909329015C
:100630008093280169CF80912001806280932001FE
:1006400088EC90E090932B0180932A015DCF8091FC
:10065000200188608093200188EC90E090932D0128
:1006600080932C0151CF61E08C2FCF910C946E01BF
:100670001F920F920FB60F9211242F933F938F93D7
:100680009F93AF93BF938091010290910202A0913A
:100690000302B09104023091000223E0230F2D37B2
:1006A00058F50196A11DB11D20930002809301020F
:1006B00090930202A0930302B0930402809105027A
:1006C00090910602A0910702B09108020196A11D27
:1006D000B11D8093050290930602A0930702B09388
:1006E0000802BF91AF919F918F913F912F910F90F1
:1006F0000FBE0F901F90189526E8230F0296A11D9C
:10070000B11DD2CF789484B5826084BD84B58160F8
:1007100084BD85B5826085BD85B5816085BD8091CC
:100720006E00816080936E00109281008091810044
:10073000826080938100809181008160809381003C
:10074000809180008160809380008091B1008460FE
:100750008093B1008091B00081608093B00080915F
:1007600091008260809391008091910081608093DC
:100770009100809190008160809390008091A10011
:1007800082608093A1008091A10081608093A1008C
:100790008091A00081608093A000809121018260FF
:1007A00080932101809121018160809321018091BA
:1007B000200181608093200180917A008460809381
:1007C0007A0080917A00826080937A0080917A002A
:1007D000816080937A0080917A00806880937A00AB
:1007E0001092C1008EE20E944F0187E10E944F01EA
:1007F00086E10E944F018DE20E944F0188E10E9434
:100800004F0189E10E944F0100E010E0C5E0D0E017
:100810008EE20E9459028DE20E9459020E9451020A
:1008200061E088E10E946E0160E089E10E946E0152
:1008300068E873E180E090E00E941F028EE20E946F
:1008400059028DE20E94590261E089E10E946E0125
:1008500060E088E10E946E010E94510262EE74E045
:1008600080E090E00E941F02219791F6011511058A
:1008700069F20E940000CACFEE0FFF1F881F8BBFD6
:0C0880000790F691E02D1994F894FFCF3A
:00000001FF
