:100000000C94E3000C9414010C9414010C9414014E
:100010000C9414010C9414010C9414010C9414010C
:100020000C9414010C9414010C9414010C941401FC
:100030000C9414010C9414010C9414010C941401EC
:100040000C9414010C9414010C9414010C941401DC
:100050000C9414010C9414010C9414010C94F302EC
:100060000C9414010C9414010C9414010C941401BC
:100070000C9414010C9414010C9414010C941401AC
:100080000C9414010C9414010C9414010C9414019C
:100090000C9414010C9414010C9414010C9414018C
:1000A0000C9414010C9414010C9414010C9414017C
:1000B0000C9414010C9414010C9414010C9414016C
:1000C0000C9414010C9414010C9414010C94BD02B2
:1000D0000C9493020C9414010C9414010C941401CC
:1000E0000C9414010C9418020C9462010C9493016A
:1000F0000C943D030C9471010C9435010C94CB01CC
:100100000C94850100002200250028002B002E0001
:100110003100340002010000050108010B0100005C
:100120002100240027002A002D00300033000101A7
:100130000000040107010A01050505050705080877
:100140000808020202020A0A080804040404010161
:100150000101010101010303030303030303040776
:1001600007070C0C0C0C0C0C0C0C0202020206060D
:100170000606060606060B0B0B0B0B0B0B0B010200
:1001800010202008081020401020408002010201A9
:100190000804020101020408102040808040201061
:1001A00008040201800402018040201008040201BA
:1001B0000804020101020408102040800102040822
:1001C000102040803D0311241FBECFEFD1E2DEBFDF
:1001D000CDBF00E00CBF12E0A0E0B2E0E4E8FDE03B
:1001E00000E00BBF02C007900D92A632B107D9F70D
:1001F00022E0A6E2B2E001C01D92A23DB207E1F703
:1002000010E0C3EED0E000E006C021970109802F86
:10021000FE010E94B806C23ED10780E00807A9F798
:100220000E9474030C94C0060C94000090E0FC0142
:10023000E258FE4F2491885C9E4FFC0184918823F4
:1002400099F090E0880F991FFC01E25EFE4FA591A6
:10025000B491FC01EC5FFE4F859194918FB7F894B7
:10026000EC91E22BEC938FBF0895AF92BF92CF92A7
:10027000DF92EF92FF920F931F93CF93DF936C0166
:100280007B018B01040F151FEB015E01AE18BF0847
:10029000C017D10759F06991D601ED91FC910190F9
:1002A000F081E02DC6011995892B79F7C501DF9101
:1002B000CF911F910F91FF90EF90DF90CF90BF9063
:1002C000AF900895FC01538D448D252F30E0842F8D
:1002D00090E0821B930B541710F0CF96089501976E
:1002E0000895FC01918D828D981761F0A28DAE0F5B
:1002F000BF2FB11D5D968C91928D9F5F9F73928FE2
:1003000090E008958FEF9FEF0895FC01918D828D0D
:10031000981731F0828DE80FF11D858D90E00895DA
:100320008FEF9FEF0895FC01918D228D892F90E032
:10033000805C9F4F821B91098F73992708958FE2EC
:1003400092E00E94930121E0892B09F420E0822FA2
:100350000895FC01A48DA80FB92FB11DA35ABF4F5A
:100360002C91848D90E001968F739927848FA689B4
:10037000B7892C93A089B1898C91837080648C9308
:10038000938D848D981306C00288F389E02D8081B7
:100390008F7D80830895EF92FF920F931F93CF93E9
:1003A000DF93EC0181E0888F9B8D8C8D98131AC0B0
:1003B000E889F989808185FF15C09FB7F894EE8997
:1003C000FF896083E889F9898081837080648083F4
:1003D0009FBF81E090E0DF91CF911F910F91FF903F
:1003E000EF900895F62E0B8D10E00F5F1F4F0F73E7
:1003F0001127E02E8C8D8E110CC00FB607FCFACFA2
:10040000E889F989808185FFF5CFCE010E94A90195
:10041000F1CFEB8DEC0FFD2FF11DE35AFF4FF08272
:100420009FB7F8940B8FEA89FB8980818062CFCFD8
:10043000CF93DF93EC01888D8823B9F0AA89BB891B
:10044000E889F9898C9185FD03C0808186FD0DC006
:100450000FB607FCF7CF8C9185FFF2CF808185FF27
:10046000EDCFCE010E94A901E9CFDF91CF91089590
:1004700080E090E0892B49F080E090E0892B29F022
:100480000E94000081110E94000080E090E0892B12
:1004900049F080E090E0892B29F00E940000811152
:1004A0000E94000080E090E0892B29F00E949F01CB
:1004B00081110E94000080E090E0892B49F080E0EB
:1004C00090E0892B29F00E94000081110C9400001B
:1004D0000895863308F0865320917B00982F9870FA
:1004E000277F922B90937B008770806480937C00A1
:1004F00080917A00806480937A0080917A0086FDF2
:10050000FCCF80917800909179000895FC010190D2
:100510000020E9F73197AF01481B590BBC018FE26E
:1005200092E00C9435011F920F920FB60F92112496
:100530000BB60F922F933F934F935F936F937F93DD
:100540008F939F93AF93BF93EF93FF938FE292E0CC
:100550000E94A901FF91EF91BF91AF919F918F915F
:100560007F916F915F914F913F912F910F900BBEB3
:100570000F900FBE0F901F9018951F920F920FB6FD
:100580000F9211240BB60F922F938F939F93EF939B
:10059000FF93E0913F02F09140028081E09145029B
:1005A000F091460282FD1DC09081809148028F5FCC
:1005B0008F7320914902821741F0E0914802F0E0E8
:1005C000E15DFD4F958F80934802FF91EF919F91E0
:1005D0008F912F910F900BBE0F900FBE0F901F9019
:1005E00018958081F2CF1F920F920FB60F921124AF
:1005F0002F933F938F939F93AF93BF9380912B0241
:1006000090912C02A0912D02B0912E0230912A02DD
:1006100023E0230F2D3758F50196A11DB11D20931E
:100620002A0280932B0290932C02A0932D02B09368
:100630002E028091260290912702A0912802B0916B
:1006400029020196A11DB11D8093260290932702D5
:10065000A0932802B0932902BF91AF919F918F91EF
:100660003F912F910F900FBE0F901F90189526E885
:10067000230F0296A11DB11DD2CFEFE2F2E013824B
:10068000128288EE93E0A0E0B0E084839583A68395
:10069000B78384E092E09183808385ED90E0958735
:1006A000848784ED90E09787868780ED90E0918B3A
:1006B000808B81ED90E0938B828B82ED90E0958B27
:1006C000848B86ED90E0978B868B118E128E138E25
:1006D000148EECECF2E081E4808386EB818312825D
:1006E0001382148215820895CF93DF93CDB7DEB7BE
:1006F000A1970FB6F894DEBF0FBECDBF789484B536
:10070000826084BD84B5816084BD85B5826085BD0D
:1007100085B5816085BD80916E00816080936E009B
:10072000109281008091810082608093810080918D
:10073000810081608093810080918000816080933E
:1007400080008091B10084608093B1008091B000FE
:1007500081608093B00080919100826080939100CD
:1007600080919100816080939100809190008160E0
:10077000809390008091A10082608093A10080917D
:10078000A10081608093A1008091A000816080938E
:10079000A00080912101826080932101809121013C
:1007A00081608093210180912001816080932001EC
:1007B00080917A00846080937A0080917A008260D0
:1007C00080937A0080917A00816080937A00809192
:1007D0007A00806880937A001092C100E0913F0215
:1007E000F091400282E08083E0913B02F0913C0274
:1007F0001082E0913D02F0913E028FEC80831092D6
:100800004702E0914302F091440286E08083E09148
:100810004102F0914202808180618083E091410237
:10082000F0914202808188608083E0914102F091E2
:100830004202808180688083E0914102F09142020F
:1008400080818F7D80838EE20E94160187E10E9465
:10085000160186E10E9416018DE20E94160188E1D0
:100860000E94160189E10E94160180ECC82E82E1E7
:10087000D82E9CE1A92E98E0B92E2AE0422E512CC8
:10088000612C712C2FB7F89480912B0290912C023F
:10089000A0912D02B0912E022FBF8093CE02909393
:1008A000CF02A093D002B093D1028091CC028130CC
:1008B00009F440C060F1833009F450C082E192E055
:1008C0000E948602212F269530E050E040E019A2D8
:1008D0007E0181E2E80EF11CCA01B901A301920177
:1008E0000E948206605DF70162937F012115310548
:1008F0004105510589F7309719F0CF010E94860212
:1009000082E292E00E9486020E943802BBCF809170
:10091000CD020E946902BC016B507109C5010E94A1
:100920006E06162F633010F413E0C8CF603230F239
:100930001FE1C4CF8091CD020E946902BC016451C5
:100940007109C6010E946E06162F693010F419E075
:10095000B5CF623508F4B2CF11E5B0CF8091CD02AA
:100960000E946902BC01990F880B990B0E94E20555
:1009700029E23CE547E851E40E94D2049B01AC0126
:1009800060E078ED83E196E40E943F050E94B105A6
:10099000162F633110F413E191CF683908F48ECF2C
:1009A00017E98CCF5058BB27AA270E94EA040C9461
:1009B00034060E94260638F00E942D0620F039F4F5
:1009C0009F3F19F426F40C9423060EF4E095E7FB00
:1009D0000C941D06E92F0E94450658F3BA176207CA
:1009E00073078407950720F079F4A6F50C94670641
:1009F0000EF4E0950B2EBA2FA02D0B01B90190013A
:100A00000C01CA01A0011124FF27591B99F0593F7D
:100A100050F4503E68F11A16F040A22F232F342FC5
:100A20004427585FF3CF469537952795A795F04013
:100A30005395C9F77EF41F16BA0B620B730B840B28
:100A4000BAF09150A1F0FF0FBB1F661F771F881FE0
:100A5000C2F70EC0BA0F621F731F841F48F4879538
:100A600077956795B795F7959E3F08F0B0CF93952A
:100A7000880F08F09927EE0F9795879508950E94A3
:100A800053050C9434060E942D0658F00E94260649
:100A900040F029F45F3F29F00C941D0651110C948D
:100AA00068060C9423060E94450668F39923B1F367
:100AB000552391F3951B550BBB27AA276217730784
:100AC000840738F09F5F5F4F220F331F441FAA1F18
:100AD000A9F335D00E2E3AF0E0E832D091505040D4
:100AE000E695001CCAF72BD0FE2F29D0660F771F82
:100AF000881FBB1F261737074807AB07B0E809F068
:100B0000BB0B802DBF01FF2793585F4F3AF09E3FEC
:100B1000510578F00C941D060C9468065F3FE4F3D1
:100B2000983ED4F3869577956795B795F7959F5F2F
:100B3000C9F7880F911D9695879597F90895E1E07B
:100B4000660F771F881FBB1F621773078407BA07DA
:100B500020F0621B730B840BBA0BEE1F88F7E09535
:100B600008950E944D0688F09F5798F0B92F992755
:100B7000B751B0F0E1F0660F771F881F991F1AF088
:100B8000BA95C9F714C0B13091F00E946706B1E080
:100B900008950C946706672F782F8827B85F39F07F
:100BA000B93FCCF3869577956795B395D9F73EF421
:100BB00090958095709561957F4F8F4F9F4F0895C9
:100BC000E89409C097FB3EF49095809570956195E7
:100BD0007F4F8F4F9F4F9923A9F0F92F96E9BB279D
:100BE0009395F695879577956795B795F111F8CF19
:100BF000FAF4BB0F11F460FF1BC06F5F7F4F8F4F84
:100C00009F4F16C0882311F096E911C0772321F079
:100C10009EE8872F762F05C0662371F096E8862F11
:100C200070E060E02AF09A95660F771F881FDAF768
:100C3000880F9695879597F9089597F99F6780E8AB
:100C400070E060E008959FEF80EC089500240A941E
:100C50001616170618060906089500240A94121697
:100C60001306140605060895092E0394000C11F4CA
:100C7000882352F0BB0F40F4BF2B11F460FF04C077
:100C80006F5F7F4F8F4F9F4F089557FD9058440FD0
:100C9000551F59F05F3F71F04795880F97FB991FDB
:100CA00061F09F3F79F08795089512161306140698
:100CB000551FF2CF4695F1DF08C016161706180625
:100CC000991FF1CF86957105610508940895E89400
:100CD000BB2766277727CB0197F9089597FB072E47
:100CE00016F4009407D077FD09D00E94A40607FCF3
:100CF00005D03EF4909581959F4F0895709561952C
:100D00007F4F0895A1E21A2EAA1BBB1BFD010DC047
:100D1000AA1FBB1FEE1FFF1FA217B307E407F507AB
:100D200020F0A21BB30BE40BF50B661F771F881F87
:100D3000991F1A9469F760957095809590959B011D
:100D4000AC01BD01CF010895AA1BBB1B51E107C037
:100D5000AA1FBB1FA617B70710F0A61BB70B881F4B
:100D6000991F5A95A9F780959095BC01CD010895DA
:100D7000EE0FFF1F881F8BBF0790F691E02D19948F
:040D8000F894FFCF15
:100D840000000000CB0135016201180293017101DA
:100D940085014D65616E2064697374616E63653AA3
:060DA40020000D0A000012
:00000001FF
